:020000040000FA
:1000000001288501860183160430850000308600B2
:1000100000308B00831207309F00861671208612F5
:100020008614712086100615712006118615712020
:100030008611861671208612061471200610861409
:100040007120861086157120861106167120061201
:10005000861671208612861471208610061471206F
:10006000061086147120861006157120061186155B
:1000700071208611861471208610061571200611D4
:10008000861571208611861671208612061671203B
:1000900006128615712086110615712006110614A8
:1000A0007120061086147120861006157120061125
:1000B000861571208611861471208610861671208F
:1000C0008612861471208610061571200611861579
:1000D0007120861186167120861206147120061072
:1000E0000D282030A0007920051D9720A00B732833
:1000F0000800FF30A3002830A400A30B7D280000D7
:1001000000000000000000000000000000000000EF
:1001100000000000A40B7D2800000000000000008B
:1001200000000000000000000000000008000618A9
:100130009D2886199D28B028080006148615861467
:10014000061606158616A720850186019C28FF3015
:10015000A100FF30A200A10BAB28A20BAB28080026
:1001600006148615B620850186019C28FF30A10063
:0E017000FF30A200A10BBA28A20BBA2808008B
:02017E0000344B
:02018000003449
:02400E00103F61
:00000001FF
