:020000040000FA
:1000000001288316043085000030860000308B0004
:10001000831207309F0085018601861641208612D3
:1000200006154120061106154120061186154120AE
:100030008611861641208612061441200610861469
:100040004120861086154120861106164120061291
:1000500086164120861206154120061106144120FD
:1000600006108614412086100615412006118615BB
:100070004120861186144120861086164120861262
:100080000B282030A0004920051D6720A00B432825
:100090000800FF30A3002830A400A30B4D28000067
:1000A0000000000000000000000000000000000050
:1000B00000000000A40B4D2800000000000000001C
:1000C000000000000000000000000000080006180A
:1000D0006C2886196C2808000614861586140616E6
:1000E0000615861674200800FF30A1000000A10B41
:0400F0007628080066
:0400F40000340034A0
:02400E00103F61
:00000001FF
