:020000040000FA
:1000000001288501860183160430850000308600B2
:1000100000308B00831207309F0086164120861225
:1000200006154120061106154120061186154120AE
:100030008611861641208612061441200610861469
:100040004120861086154120861106164120061291
:1000500086164120861206154120061106144120FD
:1000600006108614412086100615412006118615BB
:100070004120861186144120861086164120861262
:100080000D282030A0004920051D6720A00B432823
:100090000800FF30A3002830A400A30B4D28000067
:1000A0000000000000000000000000000000000050
:1000B00000000000A40B4D2800000000000000001C
:1000C000000000000000000000000000080006180A
:1000D0006D2886196D288028080006148615861458
:1000E0000616061586167720850186016C28FF30D6
:1000F000A100FF30A200A10B7B28A20B7B280800E7
:10010000061486158620850186016C28FF30A10023
:0E011000FF30A200A10B8A28A20B8A2808004B
:02011E000034AB
:020120000034A9
:02400E00103F61
:00000001FF
